:03000000020145B5
:0C014500787FE4F6D8FD75815502018C2E
:10000E0011100F100D100C100A1008100A100C1001
:10001E0011100F100D100C100A1008100A100C10F1
:10002E0019041804190411041408160418041908E4
:10003E001D0820041D04200422041E041D041B049C
:10004E001E041D041B0419041804160414041204BF
:10005E001904180819041B0420041D021E02200492
:10006E001D021E02200214021602180219021B02A1
:10007E001D021E021D0419021B021D041D021E027A
:10008E002002220220021E02200219021802190268
:10009E001604190218021604140212021402120295
:1000AE001102120214021602180219021604190283
:1000BE001802190418021602180216021802190262
:1000CE001B021D021E02200220041D021E0220041D
:1000DE001D021E02200214021602180219021B0231
:1000EE001D021E021D0419021B021D041102120222
:1000FE001402160214021202140219021802190234
:10010E001604190218021604140212021402120224
:10011E001102120214021602180219021604190212
:10012E0018021904180216021802160218021902F1
:07013E001B0219021804FF67
:1001D100204A0CF921F980F9E1FA36FA8CFAD8FBB8
:1001E10023FB68FBAAFBE9FC23FC5FFC8FFCC0FC42
:1001F100EFFD1BFD45FD6CFD91FDB3FDD5FDF4FE4D
:1002010012FE2EFE47FE60FE78FE8EFEA2FEB6FEB8
:0D021100C9FEDAFEEBFEFAFF09FF17000040
:10025300120280E50A90000E93FFF460F68F0B05FF
:100263000AE50A9375F057A4FFAEF0120297050A48
:0D027300C28C7F057E00120297D28C80D6CF
:03000B0002021FCF
:0B021F00C0E0C0D075D000C000C006D9
:10022A00E50B25E0240CF8E6FE08E64E6012E50B25
:10023A0025E0240CF8E6FE08E6F58AEEF58CB2A570
:09024A00D006D000D0D0D0E03283
:10029700EF4E6010007D027CC7DCFEDDFCEF1F70B7
:0402A700EF1E80ECDA
:0102AB002230
:100280005389F0438901758A66758CFCC28DD28CC6
:07029000D2A9D2AFD2B922BE
:10015100020253E493A3F8E493A34003F68001F26F
:1001610008DFF48029E493A3F85407240CC8C333AF
:10017100C4540F4420C8834004F456800146F6DF7E
:10018100E4800B01020408102040809001D1E47E3C
:10019100019360BCA3FF543F30E509541FFEE49373
:1001A100A360010ECF54C025E060A840B8E493A33A
:1001B100FAE493A3F8E493A3C8C582C8CAC583CA65
:1001C100F0A3C8C582C8CAC583CADFE9DEE780BE1D
:01021E0000DF
:00000001FF
