:03000000020202F7
:0C020200787FE4F6D8FD75810F0200E75C
:1000E700120003E4FF1201727508008F097F0112E5
:1000F7000172EFFEEE4208AF0912022D1200268FA1
:100107000F7E00EF640470047D0180027D00EF64C0
:10011700034E70047F0180027F00EF4D60DEE4FF35
:100127001201727508008F097F01120172EFFEEE4E
:090137004208AF0912022D80C339
:0300230002008751
:10008700C0E0C0F0C083C082C0D075D000C000C03F
:1000970001C002C003C004C005C006C007309825D0
:1000A700AF997C00AD07E4FF1201C97F057E0012FE
:1000B70001EDAF99E4FDFC7F011201C97F057E00C8
:1000C7001201EDC298D007D006D005D004D003D0D6
:1000D70002D001D000D0D0D082D083D0F0D0E0328F
:1001ED00EF4E6010007D027CC7DCFEDDFCEF1F7062
:0401FD00EF1E80EC85
:0102010022DA
:10002600E4F50A20B1137F14FE1201ED30B1FD7F15
:10003600147E001201ED750A0120B0147F147E00B3
:100046001201ED30B0FD7F147E001201ED750A023B
:1000560020B2147F147E001201ED30B2FD7F147EB3
:10006600001201ED750A0320B3147F147E001201FD
:10007600ED30B3FD7F147E001201ED750A04AF0A60
:010086002257
:09022400D2A0D2A1C2A0C2A12205
:07023500C2A0D2A1D2A02259
:02014000AD0709
:10014200E4FBEBC394087480948050237E00748097
:10015200A803088006CEA2E713CE13D8F8FFEDF568
:0F01620082EF558224FF92A0D2A1C2A10B80D3BD
:01017100226B
:1001A200E4FFD2A0FEEEC39408748094805017D26C
:1001B200A130A00DA8067480088002C313D8FC42A7
:0601C20007C2A10E80DF60
:0101C8002214
:0A021A00EF24FF92A0D2A1C2A1229E
:0B020E00D2A0D2A1A2A0E433FFC2A145
:0102190022C2
:1001C9008F0C8C0D8D0E1202247FA0120140120299
:1001D9000EAF0C12014012020EAF0E1201401202B4
:0401E9000E020235CB
:020172008F0AF2
:100174001202247FA012014012020EAF0A120140A3
:1001840012020E1202247FA112014012020E120169
:0D019400A28F0B7F0112021A120235AF0B71
:0101A100223B
:1000030075985043878053890F438920758BF47506
:0B0013008DF4C2ABD28ED2AFD2AC2273
:08022D008F993099FDC299225E
:00000001FF
