:0300000002016298
:0C016200787FE4F6D8FD75815002006D36
:1000F700EFC39402748094805010740C2FF876012B
:0B010700EF25E02408F8E4F608F622DB
:10011200EFC39402748094805010740C2FF8E4F6AC
:0B012200EF25E02408F8E4F608F622C0
:10012D00EF4E6016E50E25E02408F8A60608A60792
:0B013D00740C250EF876011200CD2294
:1000CD00744F250EF8A681050EC3E50E94027480BB
:1000DD0094804003E4F50E740C250EF8E66401607F
:0A00ED00E6744F250EF8E6F58122B7
:03000B0002000EE2
:0D000E00C0E0C0D075D000C000C004C00725
:10001B00758CFC758A18E4FFEFC39402748094808E
:10002B005035EF25E02408F8E6FC08E6D39400EC05
:10003B0094004020EF25E02408F808E6161870011C
:10004B0016EF25E02408F8E6FC08E64C7006740C65
:07005B002FF876000F80C1B1
:0B006200D007D004D000D0D0D0E03296
:1000A200AB07AA06AF02EDC43354E02410F8A6074A
:1000B200AF03EDC43354E0240FF8A607EDC4335464
:0B00C200E02410FF744F2DF8A6072269
:0D014800C2A0B2A07FF47E0112012D80F54F
:0D015500C2A1B2A17FE87E0312012D80F54A
:10006D007E017F48E4FD1200A27E017F550D120036
:10007D00A2E4F50CF50DF508F509F50AF50BF50EED
:10008D00758901758CFC758A18D28CD2A9D2AF787E
:05009D004FE6F5812291
:00000001FF
